{
  "contractName": "realEstate",
  "abi": [
    {
      "constant": true,
      "inputs": [],
      "name": "admin",
      "outputs": [
        {
          "name": "",
          "type": "address"
        }
      ],
      "payable": false,
      "stateMutability": "view",
      "type": "function"
    },
    {
      "inputs": [],
      "payable": false,
      "stateMutability": "nonpayable",
      "type": "constructor"
    },
    {
      "constant": false,
      "inputs": [
        {
          "name": "propertyAddress",
          "type": "string"
        },
        {
          "name": "digitalAgreement",
          "type": "string"
        }
      ],
      "name": "addProperty",
      "outputs": [],
      "payable": false,
      "stateMutability": "nonpayable",
      "type": "function"
    },
    {
      "constant": false,
      "inputs": [
        {
          "name": "propertyAddress",
          "type": "string"
        },
        {
          "name": "digitalAgreement",
          "type": "string"
        },
        {
          "name": "amount",
          "type": "uint256"
        }
      ],
      "name": "buyProperty",
      "outputs": [],
      "payable": true,
      "stateMutability": "payable",
      "type": "function"
    },
    {
      "constant": true,
      "inputs": [
        {
          "name": "propertyAddress",
          "type": "string"
        }
      ],
      "name": "getDeed",
      "outputs": [
        {
          "name": "",
          "type": "string"
        }
      ],
      "payable": false,
      "stateMutability": "view",
      "type": "function"
    },
    {
      "constant": true,
      "inputs": [
        {
          "name": "propertyAddress",
          "type": "string"
        }
      ],
      "name": "getOwner",
      "outputs": [
        {
          "name": "",
          "type": "address"
        }
      ],
      "payable": false,
      "stateMutability": "view",
      "type": "function"
    },
    {
      "constant": true,
      "inputs": [
        {
          "name": "propertyAddress",
          "type": "string"
        }
      ],
      "name": "propertyHistory",
      "outputs": [
        {
          "name": "",
          "type": "address[]"
        }
      ],
      "payable": false,
      "stateMutability": "view",
      "type": "function"
    },
    {
      "constant": true,
      "inputs": [
        {
          "name": "owner",
          "type": "address"
        },
        {
          "name": "propertyAddress",
          "type": "string"
        }
      ],
      "name": "getAgreement",
      "outputs": [
        {
          "name": "",
          "type": "uint256"
        },
        {
          "name": "",
          "type": "uint256"
        },
        {
          "name": "",
          "type": "string"
        }
      ],
      "payable": false,
      "stateMutability": "view",
      "type": "function"
    }
  ],
  "bytecode": "0x6060604052341561000f57600080fd5b336000806101000a81548173ffffffffffffffffffffffffffffffffffffffff021916908373ffffffffffffffffffffffffffffffffffffffff160217905550611fba8061005e6000396000f30060606040523615610081576000357c0100000000000000000000000000000000000000000000000000000000900463ffffffff1680634aaf4a1214610086578063774e35f814610123578063815e2b8e146101d5578063a4f5abe214610273578063ba9d614b14610349578063e545248d1461044c578063f851a440146104ec575b600080fd5b341561009157600080fd5b6100e1600480803590602001908201803590602001908080601f01602080910402602001604051908101604052809392919081815260200183838082843782019150505050505091905050610541565b604051808273ffffffffffffffffffffffffffffffffffffffff1673ffffffffffffffffffffffffffffffffffffffff16815260200191505060405180910390f35b341561012e57600080fd5b61017e600480803590602001908201803590602001908080601f016020809104026020016040519081016040528093929190818152602001838380828437820191505050505050919050506105d9565b6040518080602001828103825283818151815260200191508051906020019060200280838360005b838110156101c15780820151818401526020810190506101a6565b505050509050019250505060405180910390f35b610271600480803590602001908201803590602001908080601f0160208091040260200160405190810160405280939291908181526020018383808284378201915050505050509190803590602001908201803590602001908080601f01602080910402602001604051908101604052809392919081815260200183838082843782019150505050505091908035906020019091905050610c22565b005b341561027e57600080fd5b6102ce600480803590602001908201803590602001908080601f016020809104026020016040519081016040528093929190818152602001838380828437820191505050505050919050506111f8565b6040518080602001828103825283818151815260200191508051906020019080838360005b8381101561030e5780820151818401526020810190506102f3565b50505050905090810190601f16801561033b5780820380516001836020036101000a031916815260200191505b509250505060405180910390f35b341561035457600080fd5b6103c3600480803573ffffffffffffffffffffffffffffffffffffffff1690602001909190803590602001908201803590602001908080601f0160208091040260200160405190810160405280939291908181526020018383808284378201915050505050509190505061136b565b6040518084815260200183815260200180602001828103825283818151815260200191508051906020019080838360005b8381101561040f5780820151818401526020810190506103f4565b50505050905090810190601f16801561043c5780820380516001836020036101000a031916815260200191505b5094505050505060405180910390f35b341561045757600080fd5b6104ea600480803590602001908201803590602001908080601f0160208091040260200160405190810160405280939291908181526020018383808284378201915050505050509190803590602001908201803590602001908080601f01602080910402602001604051908101604052809392919081815260200183838082843782019150505050505091905050611813565b005b34156104f757600080fd5b6104ff611d5d565b604051808273ffffffffffffffffffffffffffffffffffffffff1673ffffffffffffffffffffffffffffffffffffffff16815260200191505060405180910390f35b60006001826040518082805190602001908083835b60208310151561057b5780518252602082019150602081019050602083039250610556565b6001836020036101000a038019825116818451168082178552505050505050905001915050908152602001604051809103902060000160009054906101000a900473ffffffffffffffffffffffffffffffffffffffff169050919050565b6105e1611d82565b6105e9611d82565b6000806105f4611d96565b60006001876040518082805190602001908083835b60208310151561062e5780518252602082019150602081019050602083039250610609565b6001836020036101000a0380198251168184511680821785525050505050509050019150509081526020016040518091039020600201546040518059106106725750595b908082528060200260200182016040525094506001876040518082805190602001908083835b6020831015156106bd5780518252602082019150602081019050602083039250610698565b6001836020036101000a038019825116818451168082178552505050505050905001915050908152602001604051809103902060000160009054906101000a900473ffffffffffffffffffffffffffffffffffffffff169350600092505b8451831015610c155783858481518110151561073357fe5b9060200190602002019073ffffffffffffffffffffffffffffffffffffffff16908173ffffffffffffffffffffffffffffffffffffffff1681525050600260008573ffffffffffffffffffffffffffffffffffffffff1673ffffffffffffffffffffffffffffffffffffffff168152602001908152602001600020805480602002602001604051908101604052809291908181526020016000905b82821015610a32578382906000526020600020906007020160e06040519081016040529081600082018054600181600116156101000203166002900480601f01602080910402602001604051908101604052809291908181526020018280546001816001161561010002031660029004801561088b5780601f106108605761010080835404028352916020019161088b565b820191906000526020600020905b81548152906001019060200180831161086e57829003601f168201915b5050505050815260200160018201548152602001600282015481526020016003820160009054906101000a900473ffffffffffffffffffffffffffffffffffffffff1673ffffffffffffffffffffffffffffffffffffffff1673ffffffffffffffffffffffffffffffffffffffff1681526020016004820160009054906101000a900473ffffffffffffffffffffffffffffffffffffffff1673ffffffffffffffffffffffffffffffffffffffff1673ffffffffffffffffffffffffffffffffffffffff168152602001600582018054600181600116156101000203166002900480601f0160208091040260200160405190810160405280929190818152602001828054600181600116156101000203166002900480156109ed5780601f106109c2576101008083540402835291602001916109ed565b820191906000526020600020905b8154815290600101906020018083116109d057829003601f168201915b505050505081526020016006820160009054906101000a900460ff166001811115610a1457fe5b6001811115610a1f57fe5b81525050815260200190600101906107ce565b505050509150600090505b600260008573ffffffffffffffffffffffffffffffffffffffff1673ffffffffffffffffffffffffffffffffffffffff16815260200190815260200160002080549050811015610c0857866040518082805190602001908083835b602083101515610abd5780518252602082019150602081019050602083039250610a98565b6001836020036101000a0380198251168184511680821785525050505050509050019150506040518091039020600019168282815181101515610afc57fe5b90602001906020020151600001516040518082805190602001908083835b602083101515610b3f5780518252602082019150602081019050602083039250610b1a565b6001836020036101000a0380198251168184511680821785525050505050509050019150506040518091039020600019161415610bfb57600260008573ffffffffffffffffffffffffffffffffffffffff1673ffffffffffffffffffffffffffffffffffffffff16815260200190815260200160002081815481101515610bc257fe5b906000526020600020906007020160030160009054906101000a900473ffffffffffffffffffffffffffffffffffffffff169350610c08565b8080600101915050610a3d565b828060010193505061071b565b8495505050505050919050565b60008060006001866040518082805190602001908083835b602083101515610c5f5780518252602082019150602081019050602083039250610c3a565b6001836020036101000a038019825116818451168082178552505050505050905001915050908152602001604051809103902060000160009054906101000a900473ffffffffffffffffffffffffffffffffffffffff1673ffffffffffffffffffffffffffffffffffffffff1614158015610d9457503373ffffffffffffffffffffffffffffffffffffffff166001866040518082805190602001908083835b602083101515610d245780518252602082019150602081019050602083039250610cff565b6001836020036101000a038019825116818451168082178552505050505050905001915050908152602001604051809103902060000160009054906101000a900473ffffffffffffffffffffffffffffffffffffffff1673ffffffffffffffffffffffffffffffffffffffff1614155b8015610da1575060008314155b8015610dac57503483145b1515610db757600080fd5b6001856040518082805190602001908083835b602083101515610def5780518252602082019150602081019050602083039250610dca565b6001836020036101000a038019825116818451168082178552505050505050905001915050908152602001604051809103902060000160009054906101000a900473ffffffffffffffffffffffffffffffffffffffff1673ffffffffffffffffffffffffffffffffffffffff166108fc849081150290604051600060405180830381858888f193505050501515610e8557600080fd5b6001856040518082805190602001908083835b602083101515610ebd5780518252602082019150602081019050602083039250610e98565b6001836020036101000a03801982511681845116808217855250505050505090500191505090815260200160405180910390209150600260008360000160009054906101000a900473ffffffffffffffffffffffffffffffffffffffff1673ffffffffffffffffffffffffffffffffffffffff1673ffffffffffffffffffffffffffffffffffffffff1681526020019081526020016000208260010154815481101515610f6657fe5b90600052602060002090600702019050600260003373ffffffffffffffffffffffffffffffffffffffff1673ffffffffffffffffffffffffffffffffffffffff1681526020019081526020016000208054806001018281610fc79190611daa565b9160005260206000209060070201600060e0604051908101604052808981526020018781526020014281526020018660000160009054906101000a900473ffffffffffffffffffffffffffffffffffffffff1673ffffffffffffffffffffffffffffffffffffffff1681526020013373ffffffffffffffffffffffffffffffffffffffff1681526020018881526020016000600181111561106457fe5b81525090919091506000820151816000019080519060200190611088929190611ddc565b50602082015181600101556040820151816002015560608201518160030160006101000a81548173ffffffffffffffffffffffffffffffffffffffff021916908373ffffffffffffffffffffffffffffffffffffffff16021790555060808201518160040160006101000a81548173ffffffffffffffffffffffffffffffffffffffff021916908373ffffffffffffffffffffffffffffffffffffffff16021790555060a0820151816005019080519060200190611147929190611ddc565b5060c08201518160060160006101000a81548160ff0219169083600181111561116c57fe5b021790555050505060018160060160006101000a81548160ff0219169083600181111561119557fe5b0217905550338260000160006101000a81548173ffffffffffffffffffffffffffffffffffffffff021916908373ffffffffffffffffffffffffffffffffffffffff16021790555081600201600081548092919060010191905055505050505050565b611200611e5c565b600260003373ffffffffffffffffffffffffffffffffffffffff1673ffffffffffffffffffffffffffffffffffffffff1681526020019081526020016000206001836040518082805190602001908083835b6020831015156112775780518252602082019150602081019050602083039250611252565b6001836020036101000a0380198251168184511680821785525050505050509050019150509081526020016040518091039020600101548154811015156112ba57fe5b90600052602060002090600702016005018054600181600116156101000203166002900480601f01602080910402602001604051908101604052809291908181526020018280546001816001161561010002031660029004801561135f5780601f106113345761010080835404028352916020019161135f565b820191906000526020600020905b81548152906001019060200180831161134257829003601f168201915b50505050509050919050565b600080611376611e5c565b61137e611d96565b6000600260008873ffffffffffffffffffffffffffffffffffffffff1673ffffffffffffffffffffffffffffffffffffffff168152602001908152602001600020805480602002602001604051908101604052809291908181526020016000905b82821015611643578382906000526020600020906007020160e06040519081016040529081600082018054600181600116156101000203166002900480601f01602080910402602001604051908101604052809291908181526020018280546001816001161561010002031660029004801561149c5780601f106114715761010080835404028352916020019161149c565b820191906000526020600020905b81548152906001019060200180831161147f57829003601f168201915b5050505050815260200160018201548152602001600282015481526020016003820160009054906101000a900473ffffffffffffffffffffffffffffffffffffffff1673ffffffffffffffffffffffffffffffffffffffff1673ffffffffffffffffffffffffffffffffffffffff1681526020016004820160009054906101000a900473ffffffffffffffffffffffffffffffffffffffff1673ffffffffffffffffffffffffffffffffffffffff1673ffffffffffffffffffffffffffffffffffffffff168152602001600582018054600181600116156101000203166002900480601f0160208091040260200160405190810160405280929190818152602001828054600181600116156101000203166002900480156115fe5780601f106115d3576101008083540402835291602001916115fe565b820191906000526020600020905b8154815290600101906020018083116115e157829003601f168201915b505050505081526020016006820160009054906101000a900460ff16600181111561162557fe5b600181111561163057fe5b81525050815260200190600101906113df565b505050509150600090505b600260008873ffffffffffffffffffffffffffffffffffffffff1673ffffffffffffffffffffffffffffffffffffffff1681526020019081526020016000208054905081101561180957856040518082805190602001908083835b6020831015156116ce57805182526020820191506020810190506020830392506116a9565b6001836020036101000a038019825116818451168082178552505050505050905001915050604051809103902060001916828281518110151561170d57fe5b90602001906020020151600001516040518082805190602001908083835b602083101515611750578051825260208201915060208101905060208303925061172b565b6001836020036101000a03801982511681845116808217855250505050505090500191505060405180910390206000191614156117fc57670de0b6b3a7640000828281518110151561179e57fe5b90602001906020020151602001518115156117b557fe5b0482828151811015156117c457fe5b906020019060200201516040015183838151811015156117e057fe5b9060200190602002015160a0015180905094509450945061180a565b808060010191505061164e565b5b50509250925092565b6000809054906101000a900473ffffffffffffffffffffffffffffffffffffffff1673ffffffffffffffffffffffffffffffffffffffff163373ffffffffffffffffffffffffffffffffffffffff1614151561186e57600080fd5b60006001836040518082805190602001908083835b6020831015156118a85780518252602082019150602081019050602083039250611883565b6001836020036101000a038019825116818451168082178552505050505050905001915050908152602001604051809103902060000160009054906101000a900473ffffffffffffffffffffffffffffffffffffffff1673ffffffffffffffffffffffffffffffffffffffff1614151561192157600080fd5b6000809054906101000a900473ffffffffffffffffffffffffffffffffffffffff166001836040518082805190602001908083835b60208310151561197b5780518252602082019150602081019050602083039250611956565b6001836020036101000a038019825116818451168082178552505050505050905001915050908152602001604051809103902060000160006101000a81548173ffffffffffffffffffffffffffffffffffffffff021916908373ffffffffffffffffffffffffffffffffffffffff160217905550600260008060009054906101000a900473ffffffffffffffffffffffffffffffffffffffff1673ffffffffffffffffffffffffffffffffffffffff1673ffffffffffffffffffffffffffffffffffffffff1681526020019081526020016000208054806001018281611a619190611daa565b9160005260206000209060070201600060e06040519081016040528086815260200160008152602001428152602001600073ffffffffffffffffffffffffffffffffffffffff1681526020016000809054906101000a900473ffffffffffffffffffffffffffffffffffffffff1673ffffffffffffffffffffffffffffffffffffffff16815260200185815260200160006001811115611afd57fe5b81525090919091506000820151816000019080519060200190611b21929190611ddc565b50602082015181600101556040820151816002015560608201518160030160006101000a81548173ffffffffffffffffffffffffffffffffffffffff021916908373ffffffffffffffffffffffffffffffffffffffff16021790555060808201518160040160006101000a81548173ffffffffffffffffffffffffffffffffffffffff021916908373ffffffffffffffffffffffffffffffffffffffff16021790555060a0820151816005019080519060200190611be0929190611ddc565b5060c08201518160060160006101000a81548160ff02191690836001811115611c0557fe5b02179055505050506001600260008060009054906101000a900473ffffffffffffffffffffffffffffffffffffffff1673ffffffffffffffffffffffffffffffffffffffff1673ffffffffffffffffffffffffffffffffffffffff16815260200190815260200160002080549050036001836040518082805190602001908083835b602083101515611cac5780518252602082019150602081019050602083039250611c87565b6001836020036101000a038019825116818451168082178552505050505050905001915050908152602001604051809103902060010181905550600180836040518082805190602001908083835b602083101515611d1f5780518252602082019150602081019050602083039250611cfa565b6001836020036101000a0380198251168184511680821785525050505050509050019150509081526020016040518091039020600201819055505050565b6000809054906101000a900473ffffffffffffffffffffffffffffffffffffffff1681565b602060405190810160405280600081525090565b602060405190810160405280600081525090565b815481835581811511611dd757600702816007028360005260206000209182019101611dd69190611e70565b5b505050565b828054600181600116156101000203166002900490600052602060002090601f016020900481019282601f10611e1d57805160ff1916838001178555611e4b565b82800160010185558215611e4b579182015b82811115611e4a578251825591602001919060010190611e2f565b5b509050611e589190611f21565b5090565b602060405190810160405280600081525090565b611f1e91905b80821115611f1a5760008082016000611e8f9190611f46565b600182016000905560028201600090556003820160006101000a81549073ffffffffffffffffffffffffffffffffffffffff02191690556004820160006101000a81549073ffffffffffffffffffffffffffffffffffffffff0219169055600582016000611efd9190611f46565b6006820160006101000a81549060ff021916905550600701611e76565b5090565b90565b611f4391905b80821115611f3f576000816000905550600101611f27565b5090565b90565b50805460018160011615610100020316600290046000825580601f10611f6c5750611f8b565b601f016020900490600052602060002090810190611f8a9190611f21565b5b505600a165627a7a72305820d82a681253ed7127b87cc81a52edf00ce6e678dd397606c0914e02a7ea080d420029",
  "source": "pragma solidity ^0.4.17;\r\n\r\ncontract realEstate{\r\n\r\n    address public admin;\r\n\r\n    mapping(string => propertyDetails) properties;\r\n    mapping(address => AgreementDraft[])myPropertiesDeed;\r\n\r\n    function realEstate() public{\r\n        admin = msg.sender;\r\n    }\r\n\r\n    struct propertyDetails{\r\n        address owner;\r\n        uint deedIndex;\r\n        uint totalOwners;\r\n    }\r\n    struct AgreementDraft {\r\n        string propertyAddress;   //confirm the size of uniqueid\r\n        uint amountPaid;\r\n        uint register_timestamp;\r\n        address prev_owner;\r\n        address new_owner;\r\n        string digitalAgreement;   // confirm size of IPFS\r\n        Status agreementStatus;\r\n    }\r\n\r\n    enum Status{\r\n        active,\r\n        inactive\r\n    }\r\n\r\n    function addProperty(string propertyAddress,\r\n        string digitalAgreement) public onlyAdmin {\r\n\r\n        require(properties[propertyAddress].owner==0);\r\n        properties[propertyAddress].owner = admin;\r\n        myPropertiesDeed[admin].push(AgreementDraft({\r\n\r\n            propertyAddress: propertyAddress,\r\n            amountPaid: uint(0),\r\n            register_timestamp: now,\r\n            prev_owner: address(0),\r\n            new_owner: admin,\r\n            digitalAgreement: digitalAgreement,\r\n            agreementStatus: Status.active\r\n        }));\r\n\r\n        properties[propertyAddress].deedIndex = myPropertiesDeed[admin].length-1;\r\n        properties[propertyAddress].totalOwners = 1;\r\n    }\r\n\r\n\r\n    function deedTransfer(string propertyAddress, uint amount, string digitalAgreement, address new_owner) private{\r\n\r\n        require(properties[propertyAddress].owner!=0);\r\n\r\n        propertyDetails storage temp = properties[propertyAddress];\r\n        AgreementDraft storage tempAD = myPropertiesDeed[temp.owner][temp.deedIndex];\r\n\r\n        myPropertiesDeed[new_owner].push(AgreementDraft({\r\n\r\n            propertyAddress: propertyAddress,\r\n            amountPaid: amount,\r\n            register_timestamp: now,\r\n            prev_owner: temp.owner,\r\n            new_owner: new_owner,\r\n            digitalAgreement: digitalAgreement,\r\n            agreementStatus: Status.active\r\n        }));\r\n\r\n        tempAD.agreementStatus = Status.inactive;\r\n        temp.owner = new_owner;\r\n        temp.totalOwners++;\r\n    }\r\n\r\n    function buyProperty(string propertyAddress, string digitalAgreement, uint amount) public payable{\r\n\r\n        require(properties[propertyAddress].owner!=0 && properties[propertyAddress].owner!=msg.sender && amount != uint(0) && amount == msg.value);\r\n\r\n        properties[propertyAddress].owner.transfer(amount);\r\n\r\n        //Deed Transfer\r\n        propertyDetails storage temp = properties[propertyAddress];\r\n        AgreementDraft storage tempAD = myPropertiesDeed[temp.owner][temp.deedIndex];\r\n\r\n        myPropertiesDeed[msg.sender].push(AgreementDraft({\r\n\r\n            propertyAddress: propertyAddress,\r\n            amountPaid: amount,\r\n            register_timestamp: now,\r\n            prev_owner: temp.owner,\r\n            new_owner: msg.sender,\r\n            digitalAgreement: digitalAgreement,\r\n            agreementStatus: Status.active\r\n        }));\r\n\r\n        tempAD.agreementStatus = Status.inactive;\r\n        temp.owner = msg.sender;\r\n        temp.totalOwners++;\r\n    }\r\n\r\n\r\n    function getDeed(string propertyAddress) public view returns(string){\r\n        return myPropertiesDeed[msg.sender][properties[propertyAddress].deedIndex].digitalAgreement;\r\n    }\r\n\r\n    function getOwner(string propertyAddress) public view returns(address){\r\n        return properties[propertyAddress].owner;\r\n    }\r\n\r\n    function propertyHistory(string propertyAddress) public view returns(address[]){\r\n        address[] memory history = new address[](properties[propertyAddress].totalOwners);\r\n        address temp = properties[propertyAddress].owner;\r\n\r\n        for(uint j=0;j<history.length;j++){\r\n            history[j] = temp;\r\n            AgreementDraft[] memory x = myPropertiesDeed[temp];\r\n            for(uint i=0;i<myPropertiesDeed[temp].length;i++){\r\n                if(keccak256(x[i].propertyAddress) == keccak256(propertyAddress)){\r\n                    temp = myPropertiesDeed[temp][i].prev_owner;\r\n                    break;\r\n                }\r\n            }\r\n        }\r\n        return history;\r\n    }\r\n\r\n    function getAgreement(address owner, string propertyAddress) public view returns(uint,uint,string){\r\n\r\n        AgreementDraft[] memory x = myPropertiesDeed[owner];\r\n        for(uint i=0;i<myPropertiesDeed[owner].length;i++){\r\n                if(keccak256(x[i].propertyAddress) == keccak256(propertyAddress)){\r\n                    return (x[i].amountPaid/1000000000000000000,x[i].register_timestamp,x[i].digitalAgreement);\r\n                }\r\n            }\r\n    }\r\n\r\n    modifier onlyAdmin{\r\n        require(msg.sender == admin);\r\n        _;\r\n    }\r\n\r\n}\r\n",
  "sourcePath": "F:/College Project/real-estate/RealEstate/contracts/realEstate.sol",
  "compiler": {
    "name": "solc",
    "version": "0.4.17+commit.bdeb9e52.Emscripten.clang"
  },
  "schemaVersion": "3.0.13",
  "updatedAt": "2019-09-27T15:57:50.142Z",
  "devdoc": {
    "methods": {}
  },
  "userdoc": {
    "methods": {}
  }
}